{
  "contractName": "Power",
  "abi": [
    {
      "inputs": [],
      "payable": false,
      "stateMutability": "nonpayable",
      "type": "constructor"
    },
    {
      "anonymous": false,
      "inputs": [
        {
          "indexed": false,
          "internalType": "address",
          "name": "energyReceiver",
          "type": "address"
        },
        {
          "indexed": false,
          "internalType": "address",
          "name": "_gridAddress",
          "type": "address"
        },
        {
          "indexed": false,
          "internalType": "uint256",
          "name": "_energyRequired",
          "type": "uint256"
        }
      ],
      "name": "energySent",
      "type": "event"
    },
    {
      "anonymous": false,
      "inputs": [
        {
          "indexed": false,
          "internalType": "address",
          "name": "energySender",
          "type": "address"
        },
        {
          "indexed": false,
          "internalType": "address",
          "name": "_gridAddress",
          "type": "address"
        },
        {
          "indexed": false,
          "internalType": "uint256",
          "name": "_surplus",
          "type": "uint256"
        }
      ],
      "name": "surplusSent",
      "type": "event"
    },
    {
      "constant": false,
      "inputs": [],
      "name": "userJoined",
      "outputs": [],
      "payable": false,
      "stateMutability": "nonpayable",
      "type": "function"
    },
    {
      "constant": false,
      "inputs": [
        {
          "internalType": "uint256",
          "name": "_surplusEnergy",
          "type": "uint256"
        }
      ],
      "name": "sendSurplus",
      "outputs": [
        {
          "internalType": "uint256",
          "name": "",
          "type": "uint256"
        }
      ],
      "payable": true,
      "stateMutability": "payable",
      "type": "function"
    },
    {
      "constant": false,
      "inputs": [
        {
          "internalType": "address payable",
          "name": "_to",
          "type": "address"
        },
        {
          "internalType": "uint256",
          "name": "_amount",
          "type": "uint256"
        }
      ],
      "name": "sendFund",
      "outputs": [],
      "payable": true,
      "stateMutability": "payable",
      "type": "function"
    },
    {
      "constant": true,
      "inputs": [],
      "name": "retrieveBalance",
      "outputs": [
        {
          "internalType": "uint256",
          "name": "",
          "type": "uint256"
        }
      ],
      "payable": false,
      "stateMutability": "view",
      "type": "function"
    },
    {
      "constant": true,
      "inputs": [],
      "name": "retrieveEnergy",
      "outputs": [
        {
          "internalType": "uint256",
          "name": "",
          "type": "uint256"
        }
      ],
      "payable": false,
      "stateMutability": "view",
      "type": "function"
    },
    {
      "constant": false,
      "inputs": [
        {
          "internalType": "uint256",
          "name": "_energyRequired",
          "type": "uint256"
        }
      ],
      "name": "requestEnergy",
      "outputs": [],
      "payable": true,
      "stateMutability": "payable",
      "type": "function"
    }
  ],
  "bytecode": "0x608060405273660e9b274e2090a9f31e80de2ef7a29b7831b375600260006101000a81548173ffffffffffffffffffffffffffffffffffffffff021916908373ffffffffffffffffffffffffffffffffffffffff160217905550606460035534801561006a57600080fd5b506103e860016000600260009054906101000a900473ffffffffffffffffffffffffffffffffffffffff1673ffffffffffffffffffffffffffffffffffffffff1673ffffffffffffffffffffffffffffffffffffffff16815260200190815260200160002060010181905550606460016000600260009054906101000a900473ffffffffffffffffffffffffffffffffffffffff1673ffffffffffffffffffffffffffffffffffffffff1673ffffffffffffffffffffffffffffffffffffffff16815260200190815260200160002060020181905550600060016000600260009054906101000a900473ffffffffffffffffffffffffffffffffffffffff1673ffffffffffffffffffffffffffffffffffffffff1673ffffffffffffffffffffffffffffffffffffffff16815260200190815260200160002060000181905550610d3d806101b96000396000f3fe6080604052600436106100555760003560e01c806311de804c1461005a57806322eaf383146100715780634b5694501461009c578063bfaf0633146100ea578063d79bd4991461012c578063f110b2ea14610157575b600080fd5b34801561006657600080fd5b5061006f610185565b005b34801561007d57600080fd5b506100866102f0565b6040518082815260200191505060405180910390f35b6100e8600480360360408110156100b257600080fd5b81019080803573ffffffffffffffffffffffffffffffffffffffff16906020019092919080359060200190929190505050610339565b005b6101166004803603602081101561010057600080fd5b8101908080359060200190929190505050610384565b6040518082815260200191505060405180910390f35b34801561013857600080fd5b5061014161084e565b6040518082815260200191505060405180910390f35b6101836004803603602081101561016d57600080fd5b810190808035906020019092919050505061086d565b005b600015156000803373ffffffffffffffffffffffffffffffffffffffff1673ffffffffffffffffffffffffffffffffffffffff16815260200190815260200160002060010160009054906101000a900460ff1615151461024d576040517f08c379a000000000000000000000000000000000000000000000000000000000815260040180806020018281038252600e8152602001807f416c7265616479206a6f696e656400000000000000000000000000000000000081525060200191505060405180910390fd5b60016000803373ffffffffffffffffffffffffffffffffffffffff1673ffffffffffffffffffffffffffffffffffffffff16815260200190815260200160002060010160006101000a81548160ff02191690831515021790555060646000803373ffffffffffffffffffffffffffffffffffffffff1673ffffffffffffffffffffffffffffffffffffffff16815260200190815260200160002060000181905550565b60008060003373ffffffffffffffffffffffffffffffffffffffff1673ffffffffffffffffffffffffffffffffffffffff16815260200190815260200160002060000154905090565b8173ffffffffffffffffffffffffffffffffffffffff166108fc829081150290604051600060405180830381858888f1935050505015801561037f573d6000803e3d6000fd5b505050565b60008082116103fb576040517f08c379a00000000000000000000000000000000000000000000000000000000081526004018080602001828103825260118152602001807f456e7465722072696768742076616c756500000000000000000000000000000081525060200191505060405180910390fd5b600115156000803373ffffffffffffffffffffffffffffffffffffffff1673ffffffffffffffffffffffffffffffffffffffff16815260200190815260200160002060010160009054906101000a900460ff161515146104c3576040517f08c379a000000000000000000000000000000000000000000000000000000000815260040180806020018281038252601e8152602001807f596f7520686176656e2774206a6f696e656420746865206e6574776f726b000081525060200191505060405180910390fd5b816000803373ffffffffffffffffffffffffffffffffffffffff1673ffffffffffffffffffffffffffffffffffffffff16815260200190815260200160002060000154101561057a576040517f08c379a00000000000000000000000000000000000000000000000000000000081526004018080602001828103825260198152602001807f4e6f7420656e6f75676820656e6572677920746f2073656e640000000000000081525060200191505060405180910390fd5b60016000600260009054906101000a900473ffffffffffffffffffffffffffffffffffffffff1673ffffffffffffffffffffffffffffffffffffffff1673ffffffffffffffffffffffffffffffffffffffff168152602001908152602001600020600101548260016000600260009054906101000a900473ffffffffffffffffffffffffffffffffffffffff1673ffffffffffffffffffffffffffffffffffffffff1673ffffffffffffffffffffffffffffffffffffffff168152602001908152602001600020600001540111156106ba576040517f08c379a00000000000000000000000000000000000000000000000000000000081526004018080602001828103825260158152602001807f457863656564732067726964206361706163697479000000000000000000000081525060200191505060405180910390fd5b816000803373ffffffffffffffffffffffffffffffffffffffff1673ffffffffffffffffffffffffffffffffffffffff168152602001908152602001600020600001600082825403925050819055508160016000600260009054906101000a900473ffffffffffffffffffffffffffffffffffffffff1673ffffffffffffffffffffffffffffffffffffffff1673ffffffffffffffffffffffffffffffffffffffff168152602001908152602001600020600001600082825401925050819055506000826003540290507f35cf6b12378f88c4ca4beca290015ed3a8a5b2a6da9ed6d50836588f83ade5e333600260009054906101000a900473ffffffffffffffffffffffffffffffffffffffff1685604051808473ffffffffffffffffffffffffffffffffffffffff1673ffffffffffffffffffffffffffffffffffffffff1681526020018373ffffffffffffffffffffffffffffffffffffffff1673ffffffffffffffffffffffffffffffffffffffff168152602001828152602001935050505060405180910390a180915050919050565b60003373ffffffffffffffffffffffffffffffffffffffff1631905090565b600081116108e3576040517f08c379a00000000000000000000000000000000000000000000000000000000081526004018080602001828103825260118152602001807f456e7465722072696768742076616c756500000000000000000000000000000081525060200191505060405180910390fd5b600115156000803373ffffffffffffffffffffffffffffffffffffffff1673ffffffffffffffffffffffffffffffffffffffff16815260200190815260200160002060010160009054906101000a900460ff161515146109ab576040517f08c379a000000000000000000000000000000000000000000000000000000000815260040180806020018281038252601e8152602001807f596f7520686176656e2774206a6f696e656420746865206e6574776f726b000081525060200191505060405180910390fd5b80600354023373ffffffffffffffffffffffffffffffffffffffff16311015610a3c576040517f08c379a000000000000000000000000000000000000000000000000000000000815260040180806020018281038252601c8152602001807f506c656173652073656e642074686520726967687420616d6f756e740000000081525060200191505060405180910390fd5b8060016000600260009054906101000a900473ffffffffffffffffffffffffffffffffffffffff1673ffffffffffffffffffffffffffffffffffffffff1673ffffffffffffffffffffffffffffffffffffffff168152602001908152602001600020600001541015610b16576040517f08c379a000000000000000000000000000000000000000000000000000000000815260040180806020018281038252601c8152602001807f456e65726779206e6f7420617661696c61626c6520696e20677269640000000081525060200191505060405180910390fd5b8060016000600260009054906101000a900473ffffffffffffffffffffffffffffffffffffffff1673ffffffffffffffffffffffffffffffffffffffff1673ffffffffffffffffffffffffffffffffffffffff16815260200190815260200160002060000160008282540392505081905550806000803373ffffffffffffffffffffffffffffffffffffffff1673ffffffffffffffffffffffffffffffffffffffff16815260200190815260200160002060000160008282540192505081905550600260009054906101000a900473ffffffffffffffffffffffffffffffffffffffff1673ffffffffffffffffffffffffffffffffffffffff166108fc60035483029081150290604051600060405180830381858888f19350505050158015610c43573d6000803e3d6000fd5b507f9d4ffc2215416333c110511ae587bcc9624ff65dceefaa6f6f57397647bbe38a33600260009054906101000a900473ffffffffffffffffffffffffffffffffffffffff1683604051808473ffffffffffffffffffffffffffffffffffffffff1673ffffffffffffffffffffffffffffffffffffffff1681526020018373ffffffffffffffffffffffffffffffffffffffff1673ffffffffffffffffffffffffffffffffffffffff168152602001828152602001935050505060405180910390a15056fea265627a7a72315820ef76f2d2f23abf8ae6b5215b72c4952fd656c3f6aa621fa1e9f23178e28a83af64736f6c63430005100032",
  "source": "pragma solidity ^0.5.0;\n\ncontract Power {\n\tconstructor () public {\n\t    Grid[gridAddress].capacity = 1000;\n\t    Grid[gridAddress].amount = 100;\n\t    Grid[gridAddress].energyStored = 0;\n\t}\n\n\tstruct grid {\n \t\tuint256 energyStored;\n\t\tuint256 capacity;\n\t\tuint256 amount;\n\t}\n\n\tstruct user {\n\t    uint256 energy;\n\t    bool isJoined;\n\t}\n\n\tmapping (address => user) Users;\n\tmapping (address => grid) Grid;\n\n\taddress payable gridAddress = address(0x660E9b274E2090a9F31e80dE2eF7A29B7831b375);\n\n\tuint256 unitPrice = 100;\n\n\tevent surplusSent (address energySender, address _gridAddress, uint256 _surplus);\n\tevent energySent (address energyReceiver, address _gridAddress, uint256 _energyRequired);\n\n\tfunction userJoined () public {\n\t    require(Users[msg.sender].isJoined == false, \"Already joined\");\n\t    Users[msg.sender].isJoined = true;\n\t    Users[msg.sender].energy = 100;\n\t}\n\n\tfunction sendSurplus(uint256 _surplusEnergy) public payable  returns(uint256) {\n\t    require(_surplusEnergy > 0, \"Enter right value\");\n\t    require(Users[msg.sender].isJoined == true, \"You haven't joined the network\");\n\t    require(Users[msg.sender].energy >= _surplusEnergy, \"Not enough energy to send\");\n\t    require(Grid[gridAddress].energyStored + _surplusEnergy <= Grid[gridAddress].capacity, \"Exceeds grid capacity\");\n\t    Users[msg.sender].energy -= _surplusEnergy;\n\t    Grid[gridAddress].energyStored += _surplusEnergy;\n        uint256 amount = unitPrice * _surplusEnergy;\n\t    emit surplusSent (msg.sender, gridAddress, _surplusEnergy);\n\t    return (amount);\n\t}\n\n\tfunction sendFund(address payable _to, uint256 _amount) public payable  {\n\t    _to.transfer(_amount);\n\t}\n\n\tfunction retrieveBalance () public view returns (uint256) {\n\t    return msg.sender.balance;\n\t}\n\n\tfunction retrieveEnergy () public view returns (uint256) {\n\t    return Users[msg.sender].energy;\n\t}\n\n\tfunction requestEnergy (uint256 _energyRequired) public payable  {\n\t    require(_energyRequired > 0, \"Enter right value\");\n\t    require(Users[msg.sender].isJoined == true, \"You haven't joined the network\");\n\t    require(msg.sender.balance >= unitPrice * _energyRequired, \"Please send the right amount\");\n\t    require(Grid[gridAddress].energyStored >= _energyRequired, \"Energy not available in grid\");\n\t    Grid[gridAddress].energyStored -= _energyRequired;\n\t    Users[msg.sender].energy += _energyRequired;\n\t    gridAddress.transfer(_energyRequired * unitPrice);\n\t    emit energySent (msg.sender, gridAddress, _energyRequired);\n\t}\n}",
  "sourcePath": "/home/ananya/hashcode/andAnother/power2power/src/contracts/Power.sol",
  "compiler": {
    "name": "solc",
    "version": "0.5.16+commit.9c3226ce.Emscripten.clang"
  },
  "schemaVersion": "3.0.23",
  "updatedAt": "2020-07-25T15:15:03.542Z",
  "networkType": "ethereum",
  "devdoc": {
    "methods": {}
  },
  "userdoc": {
    "methods": {}
  }
}