{
  "contractName": "Power",
  "abi": [
    {
      "inputs": [],
      "payable": false,
      "stateMutability": "nonpayable",
      "type": "constructor",
      "signature": "constructor"
    },
    {
      "anonymous": false,
      "inputs": [
        {
          "indexed": false,
          "name": "energySender",
          "type": "address"
        },
        {
          "indexed": false,
          "name": "_gridAddress",
          "type": "address"
        },
        {
          "indexed": false,
          "name": "_surplus",
          "type": "uint256"
        }
      ],
      "name": "surplusSent",
      "type": "event",
      "signature": "0x35cf6b12378f88c4ca4beca290015ed3a8a5b2a6da9ed6d50836588f83ade5e3"
    },
    {
      "anonymous": false,
      "inputs": [
        {
          "indexed": false,
          "name": "energyReceiver",
          "type": "address"
        },
        {
          "indexed": false,
          "name": "_gridAddress",
          "type": "address"
        },
        {
          "indexed": false,
          "name": "_energyRequired",
          "type": "uint256"
        }
      ],
      "name": "energySent",
      "type": "event",
      "signature": "0x9d4ffc2215416333c110511ae587bcc9624ff65dceefaa6f6f57397647bbe38a"
    },
    {
      "constant": false,
      "inputs": [],
      "name": "userJoined",
      "outputs": [],
      "payable": false,
      "stateMutability": "nonpayable",
      "type": "function",
      "signature": "0x11de804c"
    },
    {
      "constant": false,
      "inputs": [
        {
          "name": "_surplusEnergy",
          "type": "uint256"
        }
      ],
      "name": "sendSurplus",
      "outputs": [
        {
          "name": "",
          "type": "address"
        },
        {
          "name": "",
          "type": "uint256"
        }
      ],
      "payable": true,
      "stateMutability": "payable",
      "type": "function",
      "signature": "0xbfaf0633"
    },
    {
      "constant": false,
      "inputs": [
        {
          "name": "_to",
          "type": "address"
        },
        {
          "name": "_amount",
          "type": "uint256"
        }
      ],
      "name": "sendFund",
      "outputs": [],
      "payable": true,
      "stateMutability": "payable",
      "type": "function",
      "signature": "0x4b569450"
    },
    {
      "constant": true,
      "inputs": [],
      "name": "retrieveBalance",
      "outputs": [
        {
          "name": "",
          "type": "uint256"
        }
      ],
      "payable": false,
      "stateMutability": "view",
      "type": "function",
      "signature": "0xd79bd499"
    },
    {
      "constant": true,
      "inputs": [],
      "name": "retrieveEnergy",
      "outputs": [
        {
          "name": "",
          "type": "uint256"
        }
      ],
      "payable": false,
      "stateMutability": "view",
      "type": "function",
      "signature": "0x22eaf383"
    },
    {
      "constant": false,
      "inputs": [
        {
          "name": "_energyRequired",
          "type": "uint256"
        }
      ],
      "name": "requestEnergy",
      "outputs": [],
      "payable": true,
      "stateMutability": "payable",
      "type": "function",
      "signature": "0xf110b2ea"
    }
  ],
  "bytecode": "0x608060405273e312dd1fc5adeea1b4fabd6a46ca86f5f8c6d891600260006101000a81548173ffffffffffffffffffffffffffffffffffffffff021916908373ffffffffffffffffffffffffffffffffffffffff160217905550606460035534801561006a57600080fd5b506103e860016000600260009054906101000a900473ffffffffffffffffffffffffffffffffffffffff1673ffffffffffffffffffffffffffffffffffffffff1673ffffffffffffffffffffffffffffffffffffffff16815260200190815260200160002060010181905550606460016000600260009054906101000a900473ffffffffffffffffffffffffffffffffffffffff1673ffffffffffffffffffffffffffffffffffffffff1673ffffffffffffffffffffffffffffffffffffffff16815260200190815260200160002060020181905550600060016000600260009054906101000a900473ffffffffffffffffffffffffffffffffffffffff1673ffffffffffffffffffffffffffffffffffffffff1673ffffffffffffffffffffffffffffffffffffffff16815260200190815260200160002060000181905550610d89806101b96000396000f3fe608060405260043610610078576000357c0100000000000000000000000000000000000000000000000000000000900463ffffffff16806311de804c1461007d57806322eaf383146100945780634b569450146100bf578063bfaf06331461010d578063d79bd49914610182578063f110b2ea146101ad575b600080fd5b34801561008957600080fd5b506100926101db565b005b3480156100a057600080fd5b506100a9610348565b6040518082815260200191505060405180910390f35b61010b600480360360408110156100d557600080fd5b81019080803573ffffffffffffffffffffffffffffffffffffffff16906020019092919080359060200190929190505050610391565b005b6101396004803603602081101561012357600080fd5b81019080803590602001909291905050506103dc565b604051808373ffffffffffffffffffffffffffffffffffffffff1673ffffffffffffffffffffffffffffffffffffffff1681526020018281526020019250505060405180910390f35b34801561018e57600080fd5b506101976108b6565b6040518082815260200191505060405180910390f35b6101d9600480360360208110156101c357600080fd5b81019080803590602001909291905050506108d5565b005b600015156000803373ffffffffffffffffffffffffffffffffffffffff1673ffffffffffffffffffffffffffffffffffffffff16815260200190815260200160002060010160009054906101000a900460ff1615151415156102a5576040517f08c379a000000000000000000000000000000000000000000000000000000000815260040180806020018281038252600e8152602001807f416c7265616479206a6f696e656400000000000000000000000000000000000081525060200191505060405180910390fd5b60016000803373ffffffffffffffffffffffffffffffffffffffff1673ffffffffffffffffffffffffffffffffffffffff16815260200190815260200160002060010160006101000a81548160ff02191690831515021790555060646000803373ffffffffffffffffffffffffffffffffffffffff1673ffffffffffffffffffffffffffffffffffffffff16815260200190815260200160002060000181905550565b60008060003373ffffffffffffffffffffffffffffffffffffffff1673ffffffffffffffffffffffffffffffffffffffff16815260200190815260200160002060000154905090565b8173ffffffffffffffffffffffffffffffffffffffff166108fc829081150290604051600060405180830381858888f193505050501580156103d7573d6000803e3d6000fd5b505050565b600080600083111515610457576040517f08c379a00000000000000000000000000000000000000000000000000000000081526004018080602001828103825260118152602001807f456e7465722072696768742076616c756500000000000000000000000000000081525060200191505060405180910390fd5b600115156000803373ffffffffffffffffffffffffffffffffffffffff1673ffffffffffffffffffffffffffffffffffffffff16815260200190815260200160002060010160009054906101000a900460ff161515141515610521576040517f08c379a000000000000000000000000000000000000000000000000000000000815260040180806020018281038252601e8152602001807f596f7520686176656e2774206a6f696e656420746865206e6574776f726b000081525060200191505060405180910390fd5b826000803373ffffffffffffffffffffffffffffffffffffffff1673ffffffffffffffffffffffffffffffffffffffff16815260200190815260200160002060000154101515156105da576040517f08c379a00000000000000000000000000000000000000000000000000000000081526004018080602001828103825260198152602001807f4e6f7420656e6f75676820656e6572677920746f2073656e640000000000000081525060200191505060405180910390fd5b60016000600260009054906101000a900473ffffffffffffffffffffffffffffffffffffffff1673ffffffffffffffffffffffffffffffffffffffff1673ffffffffffffffffffffffffffffffffffffffff168152602001908152602001600020600101548360016000600260009054906101000a900473ffffffffffffffffffffffffffffffffffffffff1673ffffffffffffffffffffffffffffffffffffffff1673ffffffffffffffffffffffffffffffffffffffff16815260200190815260200160002060000154011115151561071c576040517f08c379a00000000000000000000000000000000000000000000000000000000081526004018080602001828103825260158152602001807f457863656564732067726964206361706163697479000000000000000000000081525060200191505060405180910390fd5b826000803373ffffffffffffffffffffffffffffffffffffffff1673ffffffffffffffffffffffffffffffffffffffff168152602001908152602001600020600001600082825403925050819055508260016000600260009054906101000a900473ffffffffffffffffffffffffffffffffffffffff1673ffffffffffffffffffffffffffffffffffffffff1673ffffffffffffffffffffffffffffffffffffffff168152602001908152602001600020600001600082825401925050819055506000836003540290507f35cf6b12378f88c4ca4beca290015ed3a8a5b2a6da9ed6d50836588f83ade5e333600260009054906101000a900473ffffffffffffffffffffffffffffffffffffffff1686604051808473ffffffffffffffffffffffffffffffffffffffff1673ffffffffffffffffffffffffffffffffffffffff1681526020018373ffffffffffffffffffffffffffffffffffffffff1673ffffffffffffffffffffffffffffffffffffffff168152602001828152602001935050505060405180910390a133818191509250925050915091565b60003373ffffffffffffffffffffffffffffffffffffffff1631905090565b60008111151561094d576040517f08c379a00000000000000000000000000000000000000000000000000000000081526004018080602001828103825260118152602001807f456e7465722072696768742076616c756500000000000000000000000000000081525060200191505060405180910390fd5b600115156000803373ffffffffffffffffffffffffffffffffffffffff1673ffffffffffffffffffffffffffffffffffffffff16815260200190815260200160002060010160009054906101000a900460ff161515141515610a17576040517f08c379a000000000000000000000000000000000000000000000000000000000815260040180806020018281038252601e8152602001807f596f7520686176656e2774206a6f696e656420746865206e6574776f726b000081525060200191505060405180910390fd5b80600354023410151515610a93576040517f08c379a000000000000000000000000000000000000000000000000000000000815260040180806020018281038252601c8152602001807f506c656173652073656e642074686520726967687420616d6f756e740000000081525060200191505060405180910390fd5b8060016000600260009054906101000a900473ffffffffffffffffffffffffffffffffffffffff1673ffffffffffffffffffffffffffffffffffffffff1673ffffffffffffffffffffffffffffffffffffffff1681526020019081526020016000206000015410151515610b6f576040517f08c379a000000000000000000000000000000000000000000000000000000000815260040180806020018281038252601c8152602001807f456e65726779206e6f7420617661696c61626c6520696e20677269640000000081525060200191505060405180910390fd5b8060016000600260009054906101000a900473ffffffffffffffffffffffffffffffffffffffff1673ffffffffffffffffffffffffffffffffffffffff1673ffffffffffffffffffffffffffffffffffffffff16815260200190815260200160002060000160008282540392505081905550806000803373ffffffffffffffffffffffffffffffffffffffff1673ffffffffffffffffffffffffffffffffffffffff16815260200190815260200160002060000160008282540192505081905550600260009054906101000a900473ffffffffffffffffffffffffffffffffffffffff1673ffffffffffffffffffffffffffffffffffffffff166108fc349081150290604051600060405180830381858888f19350505050158015610c98573d6000803e3d6000fd5b507f9d4ffc2215416333c110511ae587bcc9624ff65dceefaa6f6f57397647bbe38a33600260009054906101000a900473ffffffffffffffffffffffffffffffffffffffff1683604051808473ffffffffffffffffffffffffffffffffffffffff1673ffffffffffffffffffffffffffffffffffffffff1681526020018373ffffffffffffffffffffffffffffffffffffffff1673ffffffffffffffffffffffffffffffffffffffff168152602001828152602001935050505060405180910390a15056fea165627a7a7230582016deb00f95392f58357b79c4e8ecd253c5dd9ce92b02c7da3fd9ec06fe095db90029",
  "source": "pragma solidity ^0.5.0;\n\ncontract Power {\n\tconstructor () public {\n\t    Grid[gridAddress].capacity = 1000;\n\t    Grid[gridAddress].amount = 100;\n\t    Grid[gridAddress].energyStored = 0;\n\t}\n\tstruct grid {\n \t\tuint256 energyStored;\n\t\tuint256 capacity;\n\t\tuint256 amount;\n\t}\n\n\tstruct user {\n\t    uint256 energy;\n\t    bool isJoined;\n\t}\n\n\tmapping (address => user) Users;\n\tmapping (address => grid) Grid;\n\n\n\taddress payable gridAddress = address(0xe312dD1FC5AdeEa1b4FabD6a46cA86f5f8c6D891);\n\n\tuint256 unitPrice = 100;\n\n\tevent surplusSent (address energySender, address _gridAddress, uint256 _surplus);\n\tevent energySent (address energyReceiver, address _gridAddress, uint256 _energyRequired);\n\n\tfunction userJoined () public {\n\t    require(Users[msg.sender].isJoined == false, \"Already joined\");\n\t    Users[msg.sender].isJoined = true;\n\t    Users[msg.sender].energy = 100;\n\t}\n\n\n\n\tfunction sendSurplus(uint256 _surplusEnergy) public payable  returns(address, uint256) {\n\t    require(_surplusEnergy > 0, \"Enter right value\");\n\t    require(Users[msg.sender].isJoined == true, \"You haven't joined the network\");\n\n\t    require(Users[msg.sender].energy >= _surplusEnergy, \"Not enough energy to send\");\n\t    require(Grid[gridAddress].energyStored + _surplusEnergy <= Grid[gridAddress].capacity, \"Exceeds grid capacity\");\n\t    Users[msg.sender].energy -= _surplusEnergy;\n\t    Grid[gridAddress].energyStored += _surplusEnergy;\n        uint256 amount = unitPrice * _surplusEnergy;\n\t    emit surplusSent (msg.sender, gridAddress, _surplusEnergy);\n\t    return (msg.sender, amount);\n\t}\n\n\tfunction sendFund(address payable _to, uint256 _amount) public payable  {\n\t    _to.transfer(_amount);\n\t}\n\n\tfunction retrieveBalance () public view returns (uint256) {\n\t    return msg.sender.balance;\n\t}\n\n\tfunction retrieveEnergy () public view returns (uint256) {\n\t    return Users[msg.sender].energy;\n\t}\n\n\n\n\tfunction requestEnergy (uint256 _energyRequired) public payable  {\n\t    require(_energyRequired > 0, \"Enter right value\");\n\t    require(Users[msg.sender].isJoined == true, \"You haven't joined the network\");\n\n\t    require(msg.value >= unitPrice * _energyRequired, \"Please send the right amount\");\n\t    require(Grid[gridAddress].energyStored >= _energyRequired, \"Energy not available in grid\");\n\t    Grid[gridAddress].energyStored -= _energyRequired;\n\t    Users[msg.sender].energy += _energyRequired;\n\t    gridAddress.transfer(msg.value);\n\t    emit energySent (msg.sender, gridAddress, _energyRequired);\n\t}\n}\n",
  "sourcePath": "/home/apeksha/power2power/src/contracts/Power.sol",
  "compiler": {
    "name": "solc",
    "version": "0.5.0+commit.1d4f565a.Emscripten.clang"
  },
  "schemaVersion": "3.0.6",
  "updatedAt": "2020-07-23T11:16:15.232Z",
  "devdoc": {
    "methods": {}
  },
  "userdoc": {
    "methods": {}
  }
}