{
  "contractName": "Power",
  "abi": [
    {
      "inputs": [],
      "payable": false,
      "stateMutability": "nonpayable",
      "type": "constructor",
      "signature": "constructor"
    },
    {
      "anonymous": false,
      "inputs": [
        {
          "indexed": false,
          "name": "energySender",
          "type": "address"
        },
        {
          "indexed": false,
          "name": "_gridAddress",
          "type": "address"
        },
        {
          "indexed": false,
          "name": "_surplus",
          "type": "uint256"
        }
      ],
      "name": "surplusSent",
      "type": "event",
      "signature": "0x35cf6b12378f88c4ca4beca290015ed3a8a5b2a6da9ed6d50836588f83ade5e3"
    },
    {
      "anonymous": false,
      "inputs": [
        {
          "indexed": false,
          "name": "energyReceiver",
          "type": "address"
        },
        {
          "indexed": false,
          "name": "_gridAddress",
          "type": "address"
        },
        {
          "indexed": false,
          "name": "_energyRequired",
          "type": "uint256"
        }
      ],
      "name": "energySent",
      "type": "event",
      "signature": "0x9d4ffc2215416333c110511ae587bcc9624ff65dceefaa6f6f57397647bbe38a"
    },
    {
      "constant": false,
      "inputs": [],
      "name": "userJoined",
      "outputs": [],
      "payable": false,
      "stateMutability": "nonpayable",
      "type": "function",
      "signature": "0x11de804c"
    },
    {
      "constant": false,
      "inputs": [
        {
          "name": "_surplusEnergy",
          "type": "uint256"
        }
      ],
      "name": "sendSurplus",
      "outputs": [],
      "payable": true,
      "stateMutability": "payable",
      "type": "function",
      "signature": "0xbfaf0633"
    },
    {
      "constant": true,
      "inputs": [],
      "name": "retieveBalance",
      "outputs": [
        {
          "name": "",
          "type": "uint256"
        }
      ],
      "payable": false,
      "stateMutability": "view",
      "type": "function",
      "signature": "0x8148c2a8"
    },
    {
      "constant": true,
      "inputs": [],
      "name": "retrieveEnergy",
      "outputs": [
        {
          "name": "",
          "type": "uint256"
        }
      ],
      "payable": false,
      "stateMutability": "view",
      "type": "function",
      "signature": "0x22eaf383"
    },
    {
      "constant": false,
      "inputs": [
        {
          "name": "_energyRequired",
          "type": "uint256"
        }
      ],
      "name": "requestEnergy",
      "outputs": [],
      "payable": true,
      "stateMutability": "payable",
      "type": "function",
      "signature": "0xf110b2ea"
    }
  ],
  "bytecode": "0x608060405273e312dd1fc5adeea1b4fabd6a46ca86f5f8c6d891600260006101000a81548173ffffffffffffffffffffffffffffffffffffffff021916908373ffffffffffffffffffffffffffffffffffffffff160217905550606460035534801561006a57600080fd5b506103e860016000600260009054906101000a900473ffffffffffffffffffffffffffffffffffffffff1673ffffffffffffffffffffffffffffffffffffffff1673ffffffffffffffffffffffffffffffffffffffff16815260200190815260200160002060010181905550606460016000600260009054906101000a900473ffffffffffffffffffffffffffffffffffffffff1673ffffffffffffffffffffffffffffffffffffffff1673ffffffffffffffffffffffffffffffffffffffff16815260200190815260200160002060020181905550600060016000600260009054906101000a900473ffffffffffffffffffffffffffffffffffffffff1673ffffffffffffffffffffffffffffffffffffffff1673ffffffffffffffffffffffffffffffffffffffff16815260200190815260200160002060000181905550610b45806101b96000396000f3fe60806040526004361061006d576000357c0100000000000000000000000000000000000000000000000000000000900463ffffffff16806311de804c1461007257806322eaf383146100895780638148c2a8146100b4578063bfaf0633146100df578063f110b2ea1461010d575b600080fd5b34801561007e57600080fd5b5061008761013b565b005b34801561009557600080fd5b5061009e6102a8565b6040518082815260200191505060405180910390f35b3480156100c057600080fd5b506100c96102f1565b6040518082815260200191505060405180910390f35b61010b600480360360208110156100f557600080fd5b8101908080359060200190929190505050610310565b005b6101396004803603602081101561012357600080fd5b810190808035906020019092919050505061075a565b005b600015156000803373ffffffffffffffffffffffffffffffffffffffff1673ffffffffffffffffffffffffffffffffffffffff16815260200190815260200160002060010160009054906101000a900460ff161515141515610205576040517f08c379a000000000000000000000000000000000000000000000000000000000815260040180806020018281038252600e8152602001807f416c7265616479206a6f696e656400000000000000000000000000000000000081525060200191505060405180910390fd5b60008060003373ffffffffffffffffffffffffffffffffffffffff1673ffffffffffffffffffffffffffffffffffffffff16815260200190815260200160002060010160006101000a81548160ff02191690831515021790555060646000803373ffffffffffffffffffffffffffffffffffffffff1673ffffffffffffffffffffffffffffffffffffffff16815260200190815260200160002060000181905550565b60008060003373ffffffffffffffffffffffffffffffffffffffff1673ffffffffffffffffffffffffffffffffffffffff16815260200190815260200160002060000154905090565b60003373ffffffffffffffffffffffffffffffffffffffff1631905090565b60008114151515610389576040517f08c379a00000000000000000000000000000000000000000000000000000000081526004018080602001828103825260118152602001807f456e7465722072696768742076616c756500000000000000000000000000000081525060200191505060405180910390fd5b806000803373ffffffffffffffffffffffffffffffffffffffff1673ffffffffffffffffffffffffffffffffffffffff1681526020019081526020016000206000015410151515610442576040517f08c379a00000000000000000000000000000000000000000000000000000000081526004018080602001828103825260198152602001807f4e6f7420656e6f75676820656e6572677920746f2073656e640000000000000081525060200191505060405180910390fd5b60016000600260009054906101000a900473ffffffffffffffffffffffffffffffffffffffff1673ffffffffffffffffffffffffffffffffffffffff1673ffffffffffffffffffffffffffffffffffffffff168152602001908152602001600020600101548160016000600260009054906101000a900473ffffffffffffffffffffffffffffffffffffffff1673ffffffffffffffffffffffffffffffffffffffff1673ffffffffffffffffffffffffffffffffffffffff168152602001908152602001600020600001540111151515610584576040517f08c379a00000000000000000000000000000000000000000000000000000000081526004018080602001828103825260158152602001807f457863656564732067726964206361706163697479000000000000000000000081525060200191505060405180910390fd5b806000803373ffffffffffffffffffffffffffffffffffffffff1673ffffffffffffffffffffffffffffffffffffffff168152602001908152602001600020600001600082825403925050819055508060016000600260009054906101000a900473ffffffffffffffffffffffffffffffffffffffff1673ffffffffffffffffffffffffffffffffffffffff1673ffffffffffffffffffffffffffffffffffffffff168152602001908152602001600020600001600082825401925050819055506000816003540290503373ffffffffffffffffffffffffffffffffffffffff166108fc829081150290604051600060405180830381858888f19350505050158015610694573d6000803e3d6000fd5b507f35cf6b12378f88c4ca4beca290015ed3a8a5b2a6da9ed6d50836588f83ade5e333600260009054906101000a900473ffffffffffffffffffffffffffffffffffffffff1684604051808473ffffffffffffffffffffffffffffffffffffffff1673ffffffffffffffffffffffffffffffffffffffff1681526020018373ffffffffffffffffffffffffffffffffffffffff1673ffffffffffffffffffffffffffffffffffffffff168152602001828152602001935050505060405180910390a15050565b600081141515156107d3576040517f08c379a00000000000000000000000000000000000000000000000000000000081526004018080602001828103825260118152602001807f456e7465722072696768742076616c756500000000000000000000000000000081525060200191505060405180910390fd5b8060035402341015151561084f576040517f08c379a000000000000000000000000000000000000000000000000000000000815260040180806020018281038252601c8152602001807f506c656173652073656e642074686520726967687420616d6f756e740000000081525060200191505060405180910390fd5b8060016000600260009054906101000a900473ffffffffffffffffffffffffffffffffffffffff1673ffffffffffffffffffffffffffffffffffffffff1673ffffffffffffffffffffffffffffffffffffffff168152602001908152602001600020600001541015151561092b576040517f08c379a000000000000000000000000000000000000000000000000000000000815260040180806020018281038252601c8152602001807f456e65726779206e6f7420617661696c61626c6520696e20677269640000000081525060200191505060405180910390fd5b8060016000600260009054906101000a900473ffffffffffffffffffffffffffffffffffffffff1673ffffffffffffffffffffffffffffffffffffffff1673ffffffffffffffffffffffffffffffffffffffff16815260200190815260200160002060000160008282540392505081905550806000803373ffffffffffffffffffffffffffffffffffffffff1673ffffffffffffffffffffffffffffffffffffffff16815260200190815260200160002060000160008282540192505081905550600260009054906101000a900473ffffffffffffffffffffffffffffffffffffffff1673ffffffffffffffffffffffffffffffffffffffff166108fc349081150290604051600060405180830381858888f19350505050158015610a54573d6000803e3d6000fd5b507f9d4ffc2215416333c110511ae587bcc9624ff65dceefaa6f6f57397647bbe38a33600260009054906101000a900473ffffffffffffffffffffffffffffffffffffffff1683604051808473ffffffffffffffffffffffffffffffffffffffff1673ffffffffffffffffffffffffffffffffffffffff1681526020018373ffffffffffffffffffffffffffffffffffffffff1673ffffffffffffffffffffffffffffffffffffffff168152602001828152602001935050505060405180910390a15056fea165627a7a72305820688ce45aa64aeeae0459fab6a6b54a8de67689b94254d09ac99c2ac592238a220029",
  "source": "pragma solidity ^0.5.0;\n\ncontract Power {\n\tconstructor () public {\n\t    Grid[gridAddress].capacity = 1000;\n\t    Grid[gridAddress].amount = 100;\n\t    Grid[gridAddress].energyStored = 0;\n\t}\n\tstruct grid {\n \t\tuint256 energyStored;\n\t\tuint256 capacity;\n\t\tuint256 amount;\n\t}\n\n\tstruct user {\n\t    uint256 energy;\n\t    bool isJoined;\n\t}\n\n\tmapping (address => user) Users;\n\tmapping (address => grid) Grid;\n\n\taddress payable gridAddress = address(0xe312dD1FC5AdeEa1b4FabD6a46cA86f5f8c6D891);\n\tuint256 unitPrice = 100;\n\n\tevent surplusSent (address energySender, address _gridAddress, uint256 _surplus);\n\tevent energySent (address energyReceiver, address _gridAddress, uint256 _energyRequired);\n\n\tfunction userJoined () public {\n\t    require(Users[msg.sender].isJoined == false, \"Already joined\");\n\t    Users[msg.sender].isJoined = false;\n\t    Users[msg.sender].energy = 100;\n\t}\n\n\tfunction sendSurplus(uint256 _surplusEnergy) public payable {\n\t    require(_surplusEnergy != 0, \"Enter right value\");\n\t    require(Users[msg.sender].energy >= _surplusEnergy, \"Not enough energy to send\");\n\t    require(Grid[gridAddress].energyStored + _surplusEnergy <= Grid[gridAddress].capacity, \"Exceeds grid capacity\");\n\t    Users[msg.sender].energy -= _surplusEnergy;\n\t    Grid[gridAddress].energyStored += _surplusEnergy;\n        uint256 amount = unitPrice * _surplusEnergy;\n        msg.sender.transfer(amount);\n        // msg.sender.call.value(amount);\n        // msg.sender.call{value: 1}()\n\t    emit surplusSent (msg.sender, gridAddress, _surplusEnergy);\n\t}\n\n\tfunction retieveBalance () public view returns (uint256) {\n\t    return msg.sender.balance;\n\t}\n\n\tfunction retrieveEnergy () public view returns (uint256) {\n\t    return Users[msg.sender].energy;\n\t}\n\n\tfunction requestEnergy (uint256 _energyRequired) public payable{\n\t    require(_energyRequired != 0, \"Enter right value\");\n\t    require(msg.value >= unitPrice * _energyRequired, \"Please send the right amount\");\n\t    require(Grid[gridAddress].energyStored >= _energyRequired, \"Energy not available in grid\");\n\t    Grid[gridAddress].energyStored -= _energyRequired;\n\t    Users[msg.sender].energy += _energyRequired;\n\t    gridAddress.transfer(msg.value);\n\t    emit energySent (msg.sender, gridAddress, _energyRequired);\n\t}\n}\n",
  "sourcePath": "/home/apeksha/power2power/src/contracts/Power.sol",
  "compiler": {
    "name": "solc",
    "version": "0.5.0+commit.1d4f565a.Emscripten.clang"
  },
  "schemaVersion": "3.0.6",
  "updatedAt": "2020-07-22T17:44:21.992Z",
  "devdoc": {
    "methods": {}
  },
  "userdoc": {
    "methods": {}
  }
}